:020000040800F2
:100000000050002001020008070200080B0200084F
:100010007D02000881020008C902000800000000FB
:1000200000000000000000000000000011030008B4
:100030001503000800000000190300081D03000854
:100040002D0300082D0300082D0300082D030008D0
:100050002D0300082D0300082D0300082D030008C0
:100060002D0300082D0300082D0300082D030008B0
:100070002D0300082D0300082D0300082D030008A0
:100080002D0300082D0300082D0300082D03000890
:100090002D0300082D0300082D0300082D03000880
:1000A0002D0300082D0300082D0300082D03000870
:1000B0002D0300082D030008000000002D03000898
:1000C0002D03000800000000000000002D030008C0
:1000D000000000002D0300082D03000800000000B0
:1000E0002D0300082D0300082D03000800B583B080
:1000F00000F046FC304B314A1360314A1360314BFB
:10010000314A03E052F8041B43F8041B2F498B4289
:10011000F8D32A4B1A682E4B9A4200D0FEE7284BA0
:100120001A682C4B9A42F9D1234B2B4A13602B4A65
:1001300013602B4B02E0002243F8042B294A934220
:10014000F9D3254B1B6813B9244B1B6803B1FEE799
:1001500000F07EFC694601A800F066FA224C234BB1
:10016000E41AA410002504E0204B53F825309847EA
:100170000135AC42F8DC1E4C1E4BE41AA4100025DD
:1001800004E01C4B53F8253098470135AC42F8DCAD
:100190000099019800F06EFC0546174C174BE41AC5
:1001A000A41004E0013C154B53F824309847002C70
:1001B000F8DC284600F0D4F9BABADECA0000002004
:1001C0006000002000000020F817000864000020F4
:1001D00078563412325476986400002020020020B1
:1001E000640000202402002058030008580300087F
:1001F0005803000858030008580300085803000873
:1002000008B5FFF773FF00BEFEE71EF0040F0CBF3A
:10021000EFF30880EFF309807146414A10472DE95A
:10022000F04182B004460D46124B5F6BD3F8388024
:100230009E6A1B6B13F0020F03D00E4BDB6A002B80
:100240000BDB0D4800F086FA009543463A463146EE
:10025000204600F0ABFA00BEFEE74BF6AB6100F0C3
:100260001FFB0028EDD0034B4FF00042DA6202B0D2
:10027000BDE8F08100ED00E05816000800BEFEE782
:100280001EF0040F0CBFEFF30880EFF309807146F6
:10029000244A10472DE9F04182B004460D46084B30
:1002A0005F6BD3F838809E6A064800F053FA0095D9
:1002B00043463A463146204600F078FA00BEFEE753
:1002C00000ED00E0681600081EF0040F0CBFEFF30D
:1002D0000880EFF309807146134A10472DE9F04179
:1002E00082B004460D46084B5F6BD3F838809E6A97
:1002F000064800F02FFA009543463A46314620461C
:1003000000F054FA00BEFEE700ED00E074160008AD
:1003100000BEFEE700BEFEE700BEFEE7704700003D
:100320001F02000895020008DD02000800BEFEE77B
:10033000F81700080000002064000020F8170008EB
:1003400000000000000000006400002024020020E3
:080350000000000000000000A5
:1003580010B504460E4B1A784FF47A73B3FBF2F3D8
:100368000C4A1068B0FBF3F000F0A0F868B90F2C45
:1003780001D901200AE0002221464FF0FF3000F0A9
:1003880071F8054B1C60002000E0012010BD00BF83
:10039800040000200C0000200800002008B5074ACF
:1003A800136843F010031360032000F03DF80F209A
:1003B800FFF7CEFF00F069FB002008BD00200240D7
:1003C800002808DB0901C9B200F1604000F561406E
:1003D80080F80013704700F00F000901C9B2014B03
:1003E8001954704714ED00E000B500F00700C0F1A3
:1003F800070CBCF1040F28BF4FF0040C031D062B9B
:100408000FD9C31E4FF0FF3E0EFA0CF021EA00018F
:1004180099400EFA03FE22EA0E0241EA02005DF854
:1004280004FB0023EEE7000010B50446C31E042BAE
:100438000FD80A4AD36823F4E0631B041B0C240278
:1004480004F4E064234343F0BF6343F40033D36010
:1004580010BD9221024800F0FFFAEAE700ED00E043
:100468000415000870B506460C4615460F2A0ED826
:100478000F2C11D80B4BD8682A462146C0F302200E
:10048800FFF7B2FF01463046FFF79AFF70BDAA2179
:10049800054800F0E1FAEBE7AB21034800F0DCFA8D
:1004A800E8E700BF00ED00E0041500080138B0F1EE
:1004B800807F0BD24FF0E0235861054AF02182F883
:1004C80023100020986107221A61704701207047A5
:1004D80000ED00E008B5042807D068B94FF0E02225
:1004E800136923F00403136108BD4FF0E022136978
:1004F80043F004031361F7E740F2C911014800F023
:10050800ABFAEBE704150008014B1868704700BF09
:100518000C00002008B503460C4A12685AB10B4A71
:100528001068033323F003030344094A934206D8AF
:10053800064A136008BD054A06491160EFE700F056
:100548006BFB0C2303604FF0FF30F3E768000020DB
:10055800004C00202402002000B530B9044D1824B6
:1005680020462946ABBE0446FEE7024DF7E700BF2A
:1005780026000200230002002DE9F04184B0234F39
:1005880001970326039600230293012401AD204618
:100598002946ABBE80461E4BC3F8008001970396E0
:1005A8000423029320462946ABBE8046194BC3F864
:1005B8000080019703960823029320462946ABBE84
:1005C8000446154B1C60B4F1FF3F01D000230AE03C
:1005D800104B1A68104B1A60F8E7104A4FF0FF31B9
:1005E80042F833100133132BF7DD0C4B084A12681D
:1005F8001A6000225A60074909689960DA6006495A
:10060800096819615A6104B0BDE8F081381500081D
:10061800EC000020E8000020E4000020F0000020AA
:100628002DE9F04383B0814688462A4B00934F2337
:10063800019315276C4638462146ABBE0746AFBB2B
:10064800244B002283F84F20009A3E463C463D4604
:1006580007E001321E46204B43F8252001350124CE
:10066800013292F90030FBB164B91C49C95600291E
:10067800F6DB092BF4D0082D16DC222BE9D0272B2A
:10068800E9D1E6E736B19E42EAD1002313703E462F
:100698003C46E5E71149C956002901DB092BDFD1A2
:1006A800002313703446DBE73DB900E00025094B11
:1006B80000221A70084A13600135074B002243F8DC
:1006C8002520C9F80050C8F80030FFF755FF03B0DF
:1006D800BDE8F083940000206C000020C2160008DA
:1006E8002DE9F04385B004460F4643563BBB04252D
:1006F80028462146ABBE0546384605B0BDE8F0831E
:1007080014F901CB03F110026A4402F810CC01334A
:10071800AB42F5D310336B44002203F8102C4FF092
:100728000408E94640464946ABBE8046761B002E83
:10073800E2D03546102E28BF10250023E8E70E46E4
:10074800F5E708B5FFF7CCFF08BD00000FB400B50A
:1007580083B004AB53F8042B01938021074800F0C1
:100768004DFA002804DC03B05DF804EB04B07047D0
:1007780001460248FFF7E5FFF5E700BF94010020B6
:10078800BFF34F8F0549CA6802F4E062044B134374
:10079800CB60BFF34F8F00BFFDE700BF00ED00E067
:1007A8000400FA05F8B504460D4617461E462748C4
:1007B800FFF7CCFF21682648FFF7C8FF6168254886
:1007C800FFF7C4FFA1682448FFF7C0FFE16823488A
:1007D800FFF7BCFF21692248FFF7B8FF616921488C
:1007E800FFF7B4FFA1692048FFF7B0FFE1691F4890
:1007F800FFF7ACFF1E48FFF7A9FF29461D48FFF782
:10080800A5FF1D4CE16A1D48FFF7A0FF216B1C489E
:10081800FFF79CFFE16B1B48FFF798FF15F0800F6F
:100828000AD115F4004F0CD11748FFF78FFF06992E
:100838001648FFF78BFFF8BD39461548FFF786FFC6
:10084800EFE731461348FFF781FFEDE73C15000855
:100858004C1500085C1500086C1500087C1500088C
:100868008C1500089C150008AC150008BC1500087C
:10087800CC150008D815000800ED00E0E8150008C0
:10088800F815000808160008381600084016000871
:10089800181600082816000838B583691B888B428B
:1008A80001D0002038BD044603684568013B302B61
:1008B8005ED8DFE803F03B211C1C5330332D191997
:1008C8005D19191919193619245D19275D395D5DE6
:1008D8005D5D5D5D5D5D5D5D5D5D5D5D5D5D5D5D40
:1008E8005D5D5D5D5D1919004FF0FF330360A3691D
:1008F8000233A3610120D5E700230360F7E7002353
:100908000360F4E700232B606B60AB60EB60EEE7FD
:1009180000230360EBE7AB680360E8E700230360AC
:10092800E5E700230360E2E7FFF72AFF114928689B
:1009380000F078F940B96B6813B901232360D6E752
:10094800042B05D0082B06D04FF0FF332360CEE7E9
:1009580002232360CBE703232360C8E72B68023B0D
:10096800012B02D9AB680360C1E700230360BEE72F
:10097800002097E73815000808B500F009F8024A82
:10098800024B9A6008BD00BF0000000800ED00E0BF
:10099800704700001F4B5B6803F00C03042B14D056
:1009A800082B16D01BB11C4B1C4A1A6002E01A4BCC
:1009B8001A4A1A60174B5B68C3F30313184AD15CD1
:1009C800154A1368CB4013607047134B134A1A60DB
:1009D800F0E7104A53685268C3F38343023312F4B2
:1009E800803F05D10F4A02FB03F30B4A1360E1E78E
:1009F800084A526812F4003F05D00A4A02FB03F382
:100A0800054A1360D6E7054A02FB03F3024A13605E
:100A1800D0E700BF001002400C00002000127A004E
:100A28008416000800093D0008B5FFF76DFD054B69
:100A3800A3FB00308009FFF739FD0420FFF74AFDCA
:100A480008BD00BFD34D621008B5FFF7A7FCFFF73C
:100A5800EBFFFFF79FFF08BD08B50A4601460248AD
:100A6800FFF774FEFEE700BF9416000808B50128DA
:100A780002DC0520002304E0486800F007F8F9E7E5
:100A880001339842FCDC002008BD70470A2200218F
:100A980000F07EB8242B2DE9F0478646904601D811
:100AA800012B06D100F0B8F8162303600020BDE83A
:100AB800F0870D4635482A4615F8014B065D16F0B5
:100AC8000806F8D12D2C24D101262C78951C2BBB97
:100AD800302C30D00A23002206F1004C0CF1FF3CE8
:100AE800BCFBF3F9104603FB19CAA4F13007092F20
:100AF80028D83C46A34234DD571C07D081452DD366
:100B080001D1A2452ADB012200FB034015F8014B65
:100B1800EBE72B2C04BF2C78951CD8E7102BDAD1E7
:100B2800302CD8D12A7802F0DF02582AD3D16C7839
:100B380010230235CFE72B7803F0DF03582BF6D0CC
:100B48000823C8E7A4F14107192F01D8373CD1E79A
:100B5800A4F16107192F04D8573CCBE74FF0FF32B7
:100B6800D4E7531C08D122236046CEF80030B8F1F0
:100B7800000F9CD0691E06E006B14042B8F1000F94
:100B880095D0002AF6D1C8F8001090E7C2160008E0
:100B980013460A46014602480068FFF77BBF00BFBC
:100BA8001000002030B51446002C05461A469BB0AC
:100BB80005DA8B2303604FF0FF301BB030BD4FF4D4
:100BC8000273ADF80C300CBF234604F1FF330293D7
:100BD80005934FF6FF7300910491ADF80E30694606
:100BE8001E9B00F085F8431CBCBF8B232B60002C98
:100BF800E3D00022009B1A70DFE7000007B50093DE
:100C080013460A46014603480068FFF7CBFF03B0C6
:100C18005DF804FB10000020014B1868704700BF06
:100C28001000002010F8012B11F8013B012A28BF01
:100C38009A42F7D0D01A70472DE9F0471F468E68C0
:100C48008246BE420C4690460B682DD8B1F90C205E
:100C580012F4906F26D06569096905EB4505A3EB89
:100C6800010905EBD5757B1C4B446D109D4238BFBF
:100C78001D46530527D5294600F074FB064660B388
:100C88004A46216900F0F6FAA38923F4906343F0F9
:100C98008003A38126614E4426603E466561A5EB2C
:100CA8000905A560BE4200D93E4632464146206845
:100CB80000F0B8FA0020A3689B1BA36023683344A4
:100CC8002360BDE8F0872A4600F0D0FB06460028DE
:100CD800E0D15046216900F0DBFA0C23CAF8003055
:100CE800A3894FF0FF3043F04003A381E9E70000F8
:100CF8002DE9F04F98468B8907461B060D4614468A
:100D08009DB010D50B6973B9402100F02BFB28600A
:100D1800286130B90C233B604FF0FF301DB0BDE8AF
:100D2800F08F40236B610023099320238DF829302D
:100D380030234FF00109CDF80C80DFF898818DF849
:100D48002A3023469A4613F8012B0AB1252AF9D1ED
:100D5800BAEB040B0BD05B46224629463846FFF710
:100D68006BFF013000F0A780099A5A4409929AF85B
:100D78000030002B00F09F8000234FF0FF32CDE9B8
:100D880005230AF1010A049307938DF853301A9347
:100D98005446052214F8011B4E4800F05DFA049AE7
:100DA800D8B9D00644BF20238DF85330110744BF6B
:100DB8002B238DF853309AF800302A2B15D054463F
:100DC80000204FF00A0C079A214611F8013B303BEE
:100DD800092B4BD9B0B1079214E0A0EB080309FA2C
:100DE80003F31343A2460493D2E7039B191D1B6820
:100DF8000391002BBBBF5B4242F0020207930793AB
:100E0800B8BF049223782E2B0AD163782A2B32D1CB
:100E1800039B02341A1D1B68039243EAE37305938C
:100E2800DFF8B4A003225046217800F015FA38B153
:100E38004022049BA0EB0A00824013430134049330
:100E480014F8011B062225488DF8281000F004FA32
:100E5800002836D0224B1BBB039B073323F0070324
:100E680008330393099B334409936AE70C4601202E
:100E78000CFB0232A8E700234FF00A0C1946013494
:100E88000593204610F8012B303A092A03D9002B84
:100E9800C6D00591C4E7044601230CFB0121F0E705
:100EA80003AB00932A4638460E4B04A9AFF30080E3
:100EB800421C0646D6D1AB895B063FF52DAF099893
:100EC8002CE703AB00932A463846064B04A900F0EA
:100ED8007DF8EDE7C2170008C8170008CC1700080E
:100EE80000000000410C00082DE9F047164698461E
:100EF8008A680B6907469342B8BF1346336091F876
:100F080043200C46DDF820900AB101333360236892
:100F1800990642BF336802333360256815F0060529
:100F280006D104F1190AE36832689B1AAB422BDC3C
:100F380094F843302268003B18BF0123920630D44E
:100F48004146384604F14302C847013023D023689C
:100F5800226903F00603042B14BF002533684FF001
:100F6800000608BFE56804F11A0408BFED1A54F832
:100F7800123C08BF25EAE5759342C4BF9B1AED18D9
:100F8800B5421AD1002008E00123524641463846AE
:100F9800C847013003D14FF0FF30BDE8F087013575
:100FA800C1E73020E11881F843005A1C94F8451035
:100FB8002244023382F84310C2E701232246414605
:100FC8003846C8470130E6D00136D9E72DE9FF4752
:100FD8000F7E9146782F80460C469A460C9E01F16A
:100FE800430207D8622F0AD8002F00F0DD80582F5F
:100FF80000F0C38004F1420684F842703AE0A7F199
:101008006303152BF6D801A151F823F06D100008E1
:1010180081100008FD0F0008FD0F0008FD0F0008F3
:10102800FD0F000881100008FD0F0008FD0F0008E3
:10103800FD0F0008FD0F0008971100080F110008A8
:101048004F110008FD0F0008FD0F0008B911000836
:10105800FD0F00080F110008FD0F0008FD0F000824
:101068005711000833681A1D1B68326004F14206E4
:1010780084F842300123A8E031682368081D3060F5
:101088001E0601D50D6803E05D06FBD5B1F90050D9
:10109800002D616878DA2D20002984F84300A160CA
:1010A8002DDA0A235D486D421646B5FBF3F103FBC2
:1010B8001157C75D06F8017D2F46BB420D46F4D98E
:1010C800082B0BD12368DF0708D52369616899428B
:1010D800DEBF302306F8013C06F1FF36921B226181
:1010E8004B4621464046CDF800A003AAFFF7FCFE78
:1010F80001306FD14FF0FF3004B0BDE8F08723F026
:1011080004032360CDE721683368080653F8045BBD
:1011180002D4490648BFADB26F2F336014BF0A230B
:1011280008233E48002184F843106668002EA66014
:10113800BADB216821F004012160002DB4D1002E12
:10114800B2D11646BCE7236843F020032360782712
:10115800334884F84570236831681F0651F8045BEA
:1011680002D45F0648BFADB23160D90744BF43F02F
:10117800200323601DB11023D4E72848E9E723683A
:1011880023F020032360F6E70A232448CDE73368D9
:101198002568181D616930602E061B6801D5196025
:1011A80002E06806FBD5198000231646236197E7FD
:1011B800336800211A1D32601E686268304600F0EC
:1011C8004BF808B1801B606063682361002384F8D2
:1011D800433085E73246494640462369D0470130C7
:1011E80088D023689B0714D4E068039B9842B8BF53
:1011F800184681E70123324649464046D047013028
:101208003FF478AF0135E36803995B1AAB42F1DC30
:10121800EAE7002504F11906F5E700BFD31700082F
:10122800E4170008884210B501EB020402D9844291
:10123800234607D8431EA14208D011F8012B03F812
:10124800012FF8E7014602448A4200D110BD13F885
:10125800014D02F8014DF7E7034610B5C9B2024443
:101268009342184601D1002003E0047801338C42F0
:10127800F6D110BD0A44914200F1FF3300D1704706
:1012880010B511F8014B914203F8014FF9D110BD87
:1012980038B50546002940D051F8043C0C1F002BF6
:1012A800B8BFE41800F0D6F81C4A136833B9636075
:1012B80014602846BDE8384000F0D2B8A34208D9E7
:1012C800206821188B4201BF19685B6809182160E2
:1012D800EDE71A465B680BB1A342FAD911685018BA
:1012E800A0420BD120680144501883421160E0D11C
:1012F80018685B68084410605360DAE702D90C2369
:101308002B60D6E7206821188B4201BF19685B68FB
:101318000918216063605460CBE738BD18020020CB
:1013280070B50F4E0C463168054611B900F0CCF87F
:1013380030602146284600F0C7F8431C03D14FF01F
:10134800FF34204670BDC41C24F00304A042F8D02A
:10135800211A284600F0B8F80130F2D1EFE700BFB3
:10136800140200202DE9F041CD1C25F003050835B5
:101378000C2D38BF0C25002D064601DBA94204D9E7
:101388000C2333600020BDE8F081314F00F062F893
:101398003B681C4644BB29463046FFF7C1FF431C47
:1013A800044650D13C682146002941D1002C44D044
:1013B8002368304604EB030800F086F880453CD1EA
:1013C800216830466D1A2946FFF7AAFF013034D04C
:1013D80023682B4423603B68002B36D05A68A2420E
:1013E80029D100225A600EE02268521B1DD40B2A14
:1013F80016D96119A342256018BF5960636808BFF0
:10140800396062514B60304600F02AF804F10B0055
:10141800231D20F00700C21AB5D01B1AA350B2E74B
:10142800A3426268DED13A60EDE723466468B1E71B
:101438000C464968B8E71346CEE70C2330463360BC
:1014480000F00EF89EE70560DDE75B60FFDE00BF99
:1014580018020020014800F047B800BF1C02002015
:10146800014800F042B800BF1C0200202DE9F041FD
:10147800804615460C4621B91146BDE8F041FFF7F4
:1014880071BF2AB9FFF704FF00242046BDE8F081A8
:1014980000F02CF88542064602D8B5EB500FF4D878
:1014A80029464046FFF75EFF07460028ECD0B542C4
:1014B8002A46214628BF3246FFF7DCFE2146404631
:1014C800FFF7E6FE3C46E0E738B50023054D044645
:1014D80008462B60FFF71EF8431C02D12B6803B1A6
:1014E800236038BD900100207047704751F8043CD4
:1014F800181F002BBCBF0B58C01870472E2E2F7317
:10150800797374656D2F7372632F73746D333266DC
:10151800312D68616C2F73746D3332663178785F62
:1015280068616C5F636F727465782E6300000000F9
:101538003A747400537461636B206672616D653A26
:101548000A000000205230203D2020253038580A5B
:1015580000000000205231203D2020253038580A54
:1015680000000000205232203D2020253038580A43
:1015780000000000205233203D2020253038580A32
:101588000000000020523132203D20253038580A12
:1015980000000000204C52203D2020253038580AF9
:1015A80000000000205043203D2020253038580AF4
:1015B8000000000020505352203D20253038580AA2
:1015C800000000004653522F4641523A0A000000DC
:1015D8002043465352203D2020253038580A000029
:1015E8002048465352203D2020253038580A000014
:1015F8002044465352203D2020253038580A000008
:101608002041465352203D2020253038580A0000FA
:10161800204D4D464152203D20253038580A0000C3
:101628002042464152203D2020253038580A0000EB
:101638004D6973630A000000204C522F4558435FE0
:1016480052455455524E3D20253038580A00000066
:101658005B486172644661756C745D0A0000000045
:101668005B4275734661756C745D0A005B55736106
:1016780067654661756C745D0A0000000000000033
:1016880000000000010203040607080957726F6E84
:101698006720706172616D65746572732076616C24
:1016A80075653A2066696C65202573206F6E206C1D
:1016B800696E652025640D0A000020202020202066
:1016C80020202028282828282020202020202020EA
:1016D80020202020202020202020881010101010EA
:1016E800101010101010101010100404040404043A
:1016F800040404041010101010101041414141411D
:101708004101010101010101010101010101010181
:101718000101010101101010101010424242424212
:101728004202020202020202020202020202020251
:101738000202020202101010102000000000000037
:101748000000000000000000000000000000000091
:101758000000000000000000000000000000000081
:101768000000000000000000000000000000000071
:101778000000000000000000000000000000000061
:101788000000000000000000000000000000000051
:101798000000000000000000000000000000000041
:1017A8000000000000000000000000000000000031
:1017B80000000000000000000000232D302B200056
:1017C800686C4C00656667454647003031323334F3
:1017D8003536373839414243444546003031323393
:0D17E8003435363738396162636465660058
:1017F8007856341201FFFFFF100000000024F400A7
:101808001400002000000000000000006800000034
:10181800D0000000000000000000000000000000F0
:1018280000000000000000000000000000000000B0
:1018380000000000000000000000000000000000A0
:101848000000000000000000000000000000000090
:0418580032547698F8
:04000005080000ED02
:00000001FF
